:100000000C94C3000C94D5000C94D5000C945B04A4
:100010000C94D5000C942E040C94D5000C94D500AF
:100020000C94D5000C94D5000C94D5000C94D500FC
:100030000C94D5000C94D5000C94D5000C94D500EC
:100040000C94D5000C94D5000C94D5000C94A70307
:100050000C94D5000A011101130119012001250199
:1000600028012B012F0135016E616E00696E66005B
:100070000000010008002000400080000001000492
:1000800000000100080040000001000400407A1058
:10009000F35A00A0724E18090010A5D4E80000E839
:1000A0007648170000E40B54020000CA9A3B000097
:1000B00000E1F505000080969800000040420F0026
:1000C0000000A08601000000102700000000E803E7
:1000D000000000006400000000000A0000000000B2
:1000E0000100000000002C76D888DC674F0823DF71
:1000F000C1DFAE59E1B1B796E5E3E453C63AE65144
:10010000997696E8E6C28426EB898C9B62ED407C6A
:100110006FFCEFBC9C9F40F2BAA56FA5F490055A06
:100120002AF75C936B6CF9676DC11BFCE0E40D472B
:10013000FEF520E6B500D0ED902E0300943577054E
:100140000080841E080000204E0A000000C80C3306
:100150003333330F986E12831141EF8D2114893B95
:10016000E65516CFFEE6DB18D1844B381BF77C1D15
:10017000901DA4BBE424203284725E228100C9F168
:1001800024ECA1E53D2711241FBECFE5D4E0DEBF5E
:10019000CDBF11E0A0E6B0E001C01D92A631B107CD
:1001A000E1F70E94C9090C94110C0C9400004091D5
:1001B000600060916100809162000E94450180931F
:1001C000620008958F9A8E9AA09AA19AA29AA39AF1
:1001D000A49AA59AA69A979A969AA89AA99AAA9A38
:1001E000AB9AAC9AAD9AAE9A0895813021F008F09E
:1001F00005C0979A04C09798969A089597989698EC
:100200000895E82FF0E0EA30F105B8F5E65DFF4F1C
:100210000C947C0AA89AA99AAA9AAB9AAC9AAD9A1D
:1002200032C0A89819C0A89AA99AAA98AB9AAC9A71
:1002300005C0A89AA99AAA9AAB9AAC98AD981BC087
:10024000A898A99AAA9AAB9814C0A89AA9980FC07E
:10025000A89AA99806C0A89AA99AAA9A11C0A89A79
:10026000A99AAA9AAB9AAC9A05C0A89AA99AAA9AEE
:10027000AB9AAC98AD9AAE9A0895A898A998AA9806
:10028000AB98AC98AD98AE980895A2E0B0E0EBE4DE
:10029000F1E00C94540A813019F0182F1F5F01C04F
:1002A00010E0812F4A8369830E94F5004A816981A9
:1002B000112319F0113031F402C0862F01C0842FB0
:1002C0000E940101812F2296E3E00C94700A0895A8
:1002D00093B7987F982B93BF089582E00E9468019E
:1002E00012BE89B7816089BF1092F6001092F700A4
:1002F0001092F8001092F90008959EB5987F982BFF
:100300009EBD089583E00E947D011DBC1CBC89B781
:10031000846089BF089595B5987F982B95BD089501
:1003200084E00E948B0114BC89B7806489BF10925D
:10033000FE001092FF00109200011092010108953A
:10034000E3B7E770F0E0EE0FFF1FE058FF4F259195
:100350003491C9010895EEB5E770F0E0EE0FFF1F8C
:10036000E058FF4F25913491C9010895E5B5E77034
:10037000F0E0EE0FFF1FE059FF4F25913491C901C6
:100380000895883040F4E82FF0E0EE0FFF1FEC599D
:10039000FF4F718360830895883040F4E82FF0E0C8
:1003A000EE0FFF1FEC59FF4F118210820895CF937B
:1003B000C0E08C2F0E94CC01CF5FC830D1F70E94E3
:1003C0006D010E9482010E9490017894CF9108955E
:1003D000CF92DF92EF92FF920F931F93CF938C01F6
:1003E000C2B71092FA001092FB001092FC0010921B
:1003F000FD000E94A0019C0140E050E060E074E23A
:1004000084EF90E00E94290A6801E12CF12C293B3D
:100410008DE8380786E04807510570F4013117422E
:1004200058F4C701B6010E94E30928EE33E040E02A
:1004300050E00E94070A22C0CA01B90128EE33E049
:1004400040E050E00E94070AC701B6010E94E3099C
:100450009B01AC0113C04091FA005091FB006091E8
:10046000FC007091FD0025B72F7425BF25B72064CF
:1004700025BF889525B72F7B25BF06C0DA01C901A6
:100480008C0F911DA11DB11D0091FA001091FB0070
:100490002091FC003091FD0062B7322F212F102FE8
:1004A0000027062B081719072A073B07A0F2CF9150
:1004B0001F910F91FF90EF90DF90CF9008951092D1
:1004C000F6001092F7001092F8001092F9000895CB
:1004D0000F931F930091F6001091F7002091F80000
:1004E0003091F900B801C9011F910F910895109240
:1004F000FE001092FF001092000110920101089579
:100500000F931F930091FE001091FF0020910001B6
:1005100030910101B801C9011F910F9108958930EF
:1005200031F48FB582608FBD8FB58E7F0AC08A305F
:1005300019F48FB5826002C08FB58D7F8FBD8FB5E6
:1005400081608FBD1BBC1ABC19BC18BC08952FB5A7
:100550002E7F2FBD2FB522602FBD2EB528602EBD5A
:100560002EB520612EBD97BD86BD1BBC1ABC19BC23
:1005700018BC08958FB580688FBD8FB58F7B8FBDF8
:1005800008958FB580628FBD8FB58F7E8FBD089522
:100590008FB58F778FBD8FB58F7B8FBD08958FB54A
:1005A0008F7D8FBD8FB58F7E8FBD08958FB58D7F69
:1005B0008FBD8FB58E7F8FBD0E94C8020E94CF0273
:1005C00008959BBD8ABD089599BD88BD08951F9269
:1005D0000F920FB60F9211242F933F934F935F9377
:1005E0006F937F938F939F93AF93BF93EF93FF93FB
:1005F0008091F6009091F700A091F800B091F90079
:100600000196A11DB11D8093F6009093F700A09371
:10061000F800B093F9008091FA009091FB00A0914E
:10062000FC00B091FD000196A11DB11D8093FA0060
:100630009093FB00A093FC00B093FD0080916400B8
:1006400090916500892B29F0E0916400F09165009C
:100650000995FF91EF91BF91AF919F918F917F91FC
:100660006F915F914F913F912F910F900FBE0F901F
:100670001F9018951F920F920FB60F9211242F936F
:100680003F934F935F936F937F938F939F93AF931A
:10069000BF93EF93FF938091660090916700892B41
:1006A00029F0E0916600F09167000995FF91EF91C4
:1006B000BF91AF919F918F917F916F915F914F917A
:1006C0003F912F910F900FBE0F901F9018951F9282
:1006D0000F920FB60F9211242F933F934F935F9376
:1006E0006F937F938F939F93AF93BF93EF93FF93FA
:1006F0008091FE009091FF00A0910001B091010156
:100700000196A11DB11D8093FE009093FF00A09360
:100710000001B093010180916E0090916F00892BD0
:1007200029F0E0916E00F0916F000995FF91EF9133
:10073000BF91AF919F918F917F916F915F914F91F9
:100740003F912F910F900FBE0F901F9018951F9201
:100750000F920FB60F9211242F933F934F935F93F5
:100760006F937F938F939F93AF93BF93EF93FF9379
:100770008091720090917300892B29F0E0917200B2
:10078000F09173000995FF91EF91BF91AF919F9107
:100790008F917F916F915F914F913F912F910F902A
:1007A0000FBE0F901F9018951F920F920FB60F92C9
:1007B00011242F933F934F935F936F937F938F9366
:1007C0009F93AF93BF93EF93FF93809168009091B5
:1007D0006900892B29F0E0916800F0916900099582
:1007E000FF91EF91BF91AF919F918F917F916F9109
:1007F0005F914F913F912F910F900FBE0F901F90DF
:1008000018951F920F920FB60F9211242F933F93BA
:100810004F935F936F937F938F939F93AF93BF9308
:10082000EF93FF9380916A0090916B00892B29F0E0
:10083000E0916A00F0916B000995FF91EF91BF91F3
:10084000AF919F918F917F916F915F914F913F9168
:100850002F910F900FBE0F901F9018951F920F921F
:100860000FB60F9211242F933F934F935F936F9383
:100870007F938F939F93AF93BF93EF93FF93809159
:100880006C0090916D00892B29F0E0916C00F09143
:100890006D000995FF91EF91BF91AF919F918F915D
:1008A0007F916F915F914F913F912F910F900FBE6C
:1008B0000F901F9018951F920F920FB60F92112450
:1008C0002F933F934F935F936F937F938F939F9358
:1008D000AF93BF93EF93FF9380917000909171005D
:1008E000892B29F0E0917000F09171000995FF913A
:1008F000EF91BF91AF919F918F917F916F915F9198
:100900004F913F912F910F900FBE0F901F90189510
:1009100040E450E066E770E083E091E00E94A805C3
:1009200040E450E066EB70E08CE091E00E94A805A6
:1009300008950E948804109275001092740088ED4A
:100940008AB987E689B910BC8FEF809302011092B3
:100950000B01109215011092140178940895909350
:1009600075008093740008950F931F938B019C0171
:1009700060587B47814E9F4F43E0660F771F881F6B
:10098000991F4A95D1F7A9019801E4E0220F331F7E
:10099000441F551FEA95D1F70E94070A21503109DB
:1009A00029B930BD1F910F91089583E091E008951A
:1009B0008CE091E00895909102019923E1F38CB9C4
:1009C000109202010895CF93DF93EC01809105010D
:1009D00090910601892B69F080910701909108019F
:1009E000892B39F083E091E00E94B50588838FEF71
:1009F00001C080E0DF91CF910895A1E0B0E0E3E095
:100A0000F5E00C94550ACE0101960E94E304882378
:100A100019F0298130E002C02FEF3FEFC901219684
:100A2000E2E00C94710A10920801109207010895F7
:100A30008091070190910801892B11F48FEF08959F
:100A400080E00895682F8CE091E00E940D060895E3
:100A50008FEF80930B018CE091E00E94B5050E941E
:100A6000DB0408951F920F920FB60F9211242F935B
:100A70003F934F935F936F937F938F939F93AF9326
:100A8000BF93EF93FF9380910B01882371F08091C6
:100A9000100190911101892B31F08CE091E00E94BE
:100AA000B5058CB905C010920B018FEF8093020140
:100AB000FF91EF91BF91AF919F918F917F916F9136
:100AC0005F914F913F912F910F900FBE0F901F900C
:100AD00018951F920F920FB60F9211242F933F93E8
:100AE0004F935F936F937F938F939F93AF93BF9336
:100AF000EF93FF938CB12091740030917500232BFC
:100B000031F0E0917400F0917500099510C0682FE4
:100B100083E091E00E940D06811109C080911401CB
:100B20009091150101969093150180931401FF9106
:100B3000EF91BF91AF919F918F917F916F915F9155
:100B40004F913F912F910F900FBE0F901F901895CE
:100B5000FC018FB7F89471836083538342831782BB
:100B60001682158214828FBF0895FC019FB7F894F6
:100B70004481558141155105C9F026813781A081F5
:100B8000B181A20FB31F8C912F5F3F4F3783268314
:100B9000628173812617370720F0261B370B3783B6
:100BA0002683415051095583448301C080E09FBF93
:100BB0000895FC01AFB7F89424813581621773075B
:100BC000A0F486819781860F971F97838683428141
:100BD00053818417950720F0841B950B9783868398
:100BE000261B370B3583248302C015821482AFBFC6
:100BF0000895FC01CB014FB7F89426813781820F0D
:100C0000931F628173810E94F3090190F081E02DAE
:100C1000E80FF91F80814FBF0895CF93DF93FC0148
:100C2000D62FCFB7F89444815581628173814617DE
:100C3000570798F486819781840F951F0E94F309C6
:100C4000A081B181A80FB91FDC93848195810196A1
:100C500095838483CFBF8FEF02C0CFBF80E0DF9149
:100C6000CF9108954FB7F894FC012281338184819C
:100C70009581281B390B4FBFC90108952FB7F894F0
:100C8000FC01158214822FBF0895A3E1B0E0EBE4CC
:100C9000F6E00C94450A7C015B018A01FC01178295
:100CA0001682838181FD03C06DC3860105C088243F
:100CB0008394912C8C0E9D1EF7019381F50193FD79
:100CC000859193FF81915F01882309F457C3853291
:100CD00039F493FD859193FF81915F01853231F461
:100CE000B70190E00E94870B6801DFCF412C512CA7
:100CF00020E02032A8F48B3261F028F4803251F0E9
:100D0000833271F40BC08D3239F0803349F42160A5
:100D100028C02260246025C0286023C0206121C033
:100D200027FD27C0382F30533A3078F426FF06C00D
:100D3000FAE04F9E300D1124432E13C08AE0589ED6
:100D4000300D1124532E20620CC08E3221F426FD6A
:100D500015C3206406C08C3611F4206802C08836A2
:100D600041F4F50193FD859193FF81915F0181111C
:100D7000C0CF982F9554933018F42061805E06C040
:100D8000982F9556933008F0A1C12F7E26FD02C002
:100D900056E0452E4FE3742E7222853619F4F0E4A6
:100DA0007F2A07C0863619F420E8722A02C0411053
:100DB0004A9477FE07C03BE3341548F0342C339453
:100DC00027E00DC087E0841530F0242D07C027E010
:100DD0003CE3332E04C027E097E0492E312C680114
:100DE00094E0C90ED11CF8016081718182819381E8
:100DF000032DA4010E94990A8C0129812C8720FFD0
:100E000002C023FF07C071FC08C072FE09C080E267
:100E1000682E07C0BDE26B2E04C0ABE26A2E01C093
:100E2000612C8C858C70A1F1662011F084E001C0EA
:100E300083E0851510F0512C0BC0581A73FC08C0C4
:100E4000B70180E290E00E94870B5A94C9F7F3CF74
:100E5000662029F0B701862D90E00E94870B3C8523
:100E600033FD03C00CE610E00CC008E610E009C03A
:100E700071108052B70190E00E94870B0F5F1F4FE7
:100E800002C080E17822F80184918111F1CF73C210
:100E900077FE0EC0300E2C8524FF04C08A8181337A
:100EA00009F43A9413144CF538E0331548F12CC08A
:100EB00076FC2AC0242D30E02017310744F00C3F87
:100EC0008FEF180724F090E8792A01C04A94442053
:100ED00049F0E2E0F0E0EC0FFD1FE40DF11D808130
:100EE0008033A1F377FE10C0342C3394242D30E0EE
:100EF0000217130744F4401A07C03324339404C084
:100F0000F8E03F2E01C0412C77FE07C010161106F5
:100F10003CF498012F5F3F4F05C025E030E002C050
:100F200021E030E0662011F02F5F3F4F442031F088
:100F3000442D50E04F5F5F4F240F351F452D50E08B
:100F40002417350714F4521A01C0512C872D8970CB
:100F500049F406C0B70180E290E00E94870B5A94E2
:100F60005110F8CF662029F0B701862D90E00E943D
:100F7000870B73FC09C006C0B70180E390E00E94B4
:100F8000870B5A945110F8CF77FE53C0380117FFE2
:100F900002C0612C712C1E861D869801231931090F
:100FA000388B2F87180126183708280C391C642D18
:100FB00070E022273327261B370B3A8B298B3FEF14
:100FC0006316730629F4B7018EE290E00E94870B46
:100FD000061517055CF02F8538892615370534F47A
:100FE000ED85FE85E20DF31D818101C080E331E0D6
:100FF000631A71082D853E852F5F3F4F3E872D87F1
:1010000029893A89621673062CF0B70190E00E9494
:10101000870BD5CF6016710649F49A81963328F470
:10102000953321F43C8534FD01C081E3B70190E0A4
:101030004AC08A81813319F02C852F7E2C87B70115
:1010400090E00E94870B411005C074FE16C085E435
:1010500090E015C0B7018EE290E00E94870BE2E0BD
:101060006E2EF401E60DF11D6394B701808190E0CE
:101070000E94870B4A94A9F7E8CF85E690E0B70174
:101080000E94870B17FD06C00115110541F43C8530
:1010900034FF05C01195019511098DE201C08BE265
:1010A000B70190E00E94870B80E303C08F5F0A5076
:1010B00011090A301105D4F7B70190E00E94870B9F
:1010C000B701C801C0960E94870B55C1833631F025
:1010D000833781F0833509F05EC024C0680182E067
:1010E000C80ED11CF8018081898366246394712C19
:1010F000840114C06801F2E0CF0ED11CF801008118
:10110000118126FF03C0642D70E002C06FEF7FEFF6
:10111000C8012B8B0E947C0B3C012B896FE7462E6C
:10112000422217C06801F2E0CF0ED11CF801008105
:10113000118126FF03C0642D70E002C06FEF7FEFC6
:10114000C8012B8B0E94710B3C012B8950E8452E66
:10115000422A43FC1CC006C0B70180E290E00E9416
:10116000870B5A94852D90E068167906A8F30FC076
:10117000F80147FC859147FE81918F01B70190E00E
:101180000E94870B51105A94F1E06F1A7108611494
:10119000710471F7F0C0843611F0893661F5680189
:1011A00027FF09C034E0C30ED11CF80160817181B2
:1011B000828193810AC0F2E0CF0ED11CF8016081D8
:1011C0007181882777FD8095982F4FE6742E7222C3
:1011D00097FF09C090958095709561957F4F8F4FCF
:1011E0009F4FF0E87F2A2AE030E0A4010E94B30B71
:1011F000682E681847C0853731F43FEE732E72228F
:101200002AE030E024C099EF792E72228F36B9F0AF
:1012100020F4883509F0B2C00DC0803721F088373E
:1012200009F0ACC002C020E1722A74FE0BC034E0A9
:10123000732A08C024FF09C086E0782A06C028E087
:1012400030E005C020E130E002C020E132E068017A
:1012500077FE09C094E0C90ED11CF801608171814C
:101260008281938108C0F2E0CF0ED11CF801608129
:10127000718180E090E0A4010E94B30B682E681891
:10128000FFE77F2276FE0BC0072D0E7F641450F41B
:1012900074FE0AC072FC08C0072D0E7E05C0162D14
:1012A000072D03C0162D01C0142D04FF0CC0FE0134
:1012B000E60DF11D8081803311F4097E08C002FF24
:1012C00005C01E5F04C0802F867809F01F5F03FDF4
:1012D00012C000FF0DC0462C151550F4450C411AE4
:1012E000152D06C0B70180E290E00E94870B1F5FBA
:1012F0001515C0F304C0151510F4511A01C0512C76
:1013000004FF10C0B70180E390E00E94870B02FF4A
:101310001EC001FF03C088E590E002C088E790E0AE
:10132000B7010CC0802F867891F001FD02C080E2E9
:1013300001C08BE207FD8DE2B70190E00E94870BB0
:1013400006C0B70180E390E00E94870B4A946414C2
:10135000C0F36A94F401E60DF11DB701808190E0BD
:101360000E94870B6110F5CF06C0B70180E290E0C4
:101370000E94870B5A945110F8CF97CCF701268121
:10138000378102C02FEF3FEFC9016396E2E10C9471
:10139000610A0E94E2000E94D7010E94990485E040
:1013A0000E947D0167ED70E081E00E94C10160E86C
:1013B00075E280E090E00E94B40489E080936100CF
:1013C00080936000FFCFDB018F939F930E94820A7E
:1013D000BF91AF91A29F800D911DA39F900DB29FD1
:1013E000900D11240895AA1BBB1B51E107C0AA1F31
:1013F000BB1FA617B70710F0A61BB70B881F991FB6
:101400005A95A9F780959095BC01CD010895A1E268
:101410001A2EAA1BBB1BFD010DC0AA1FBB1FEE1F6E
:10142000FF1FA217B307E407F50720F0A21BB30BB9
:10143000E40BF50B661F771F881F991F1A9469F735
:1014400060957095809590959B01AC01BD01CF0191
:101450000895052E97FB16F4009407D057FD0DD084
:101460000E94070A07FC09D07EF49095809570953C
:1014700061957F4F8F4F9F4F0895509540953095C0
:1014800021953F4F4F4F5F4F08952F923F924F92BC
:101490005F926F927F928F929F92AF92BF92CF9204
:1014A000DF92EF92FF920F931F93CF93DF93CDB70D
:1014B000DEB7CA1BDB0B0FB6F894DEBF0FBECDBF85
:1014C00009942A88398848885F846E847D848C8456
:1014D0009B84AA84B984C884DF80EE80FD800C815F
:1014E0001B81AA81B981CE0FD11D0FB6F894DEBF42
:1014F0000FBECDBFED010895EE0FFF1F0590F491D3
:10150000E02D09940E948D0AA59F900DB49F900D27
:10151000A49F800D911D11240895A29FB001B39F37
:10152000C001A39F01D0B29F700D811D1124911D98
:101530000895283008F027E03327DA01990F311D8C
:1015400087FD916000966105710539F432602E5F68
:101550003D9330E32A95E1F708959F3F30F08038BE
:101560007105610509F03C5F3C5F3D93913008F0E7
:101570008068911DDF93CF931F930F93FF92EF929B
:10158000192F987F9695E92F96959695E90FFF2745
:10159000EA51FF4F99273327EE24FF24A701E701E3
:1015A00005900894079428F4360FE71EF81E491F8B
:1015B000511D660F771F881F991F0694A1F705908C
:1015C000079428F4E70EF81E491F561FC11D770F18
:1015D000881F991F661F0694A1F70590079428F4A9
:1015E000F80E491F561FC71FD11D880F991F661F70
:1015F000771F0694A1F70590079420F4490F561F12
:10160000C71FD81F990F661F771F881F0694A9F759
:1016100084911095177041F0D695C79557954795C9
:10162000F794E7941A95C1F7ECE8F0E06894159008
:10163000159135916591959105907FE27395E1182B
:10164000F10A430B560BC90BD009C0F7E10CF11E90
:10165000431F561FC91FD01D7EF4703311F48A95A5
:10166000E6CFE894015030F0080F0AF40027021783
:1016700008F4202F2395022F7A3328F079E37D9305
:101680002A95E9F710C07D932A9589F606949795D7
:101690006795379517951794E118F10A430B560B88
:1016A000C90BD00998F023957E9173957A3308F091
:1016B00070E37C932013B8F77E9170617D9330F0D6
:1016C000839571E37D9370E32A95E1F71124EF9000
:1016D000FF900F911F91CF91DF91992787FD9095F2
:1016E0000895FC010590615070400110D8F7809575
:1016F00090958E0F9F1F0895FC01615070400190DE
:101700000110D8F7809590958E0F9F1F08950F9325
:101710001F93CF93DF938C01EB018B8181FD03C07D
:101720000FEF1FEF1AC082FF0DC02E813F818C8109
:101730009D812817390764F4E881F9810193F983C1
:10174000E88306C0E885F985802F0995892B41F744
:101750008E819F8101969F838E83C801DF91CF91F7
:101760001F910F910895FA01AA27283051F12031D5
:1017700081F1E8946F936E7F6E5F7F4F8F4F9F4F25
:10178000AF4FB1E03ED0B4E03CD0670F781F891F67
:101790009A1FA11D680F791F8A1F911DA11D6A0F35
:1017A000711D811D911DA11D20D009F468943F91E8
:1017B0002AE0269F11243019305D3193DEF6CF01E7
:1017C0000895462F4770405D4193B3E00FD0C9F7AD
:1017D000F6CF462F4F70405D4A3318F0495D31FD1A
:1017E0004052419302D0A9F7EACFB4E0A69597956D
:1017F000879577956795BA95C9F700976105710543
:1018000008959B01AC010A2E06945795479537958C
:101810002795BA95C9F7620F731F841F951FA01DE6
:061820000895F894FFCFCB
:00000001FF
